:1000000095C00000AEC00000ACC00000AAC0000057
:10001000A8C00000A6C00000A4C00000A2C000004C
:10002000A0C000009EC000009CC0000073C600007D
:1000300017C7000096C0000094C0000092C00000E6
:1000400063C400008EC000008CC000008AC00000A5
:1000500088C0000086C0000084C0000082C000008C
:1000600080C000007EC000007CC000007AC000009C
:1000700078C000009A07BC07A808BC07A8080108B8
:100080002308A808750887082E035200650066003B
:100090006C006F00770020006F00760065006E0036
:1000A000200063006F006E00740072006F006C002F
:1000B0006C006500720000001E03480065006E00C1
:1000C000720069006B00200046006F007200730030
:1000D000740065006E0000000403090409023E007C
:1000E000010100C0320904000001020201000524E0
:1000F000000002042402060524060001070582030D
:100100000800FF09040100020A00000007050402BC
:10011000100005070583021000051201000202000D
:100120000008EB03EE2F02000102DC0111241FBEC8
:10013000CFEFD2E0DEBFCDBF11E0A0E0B1E0ECEF49
:10014000FBE102C005900D92A637B107D9F721E077
:10015000A6E7B1E001C01D92A13BB207E1F73CD395
:100160004BCD4ECF44E150E060E070E08AE891E092
:10017000D2CCEF92FF920F931F93CF93DF93CDB723
:10018000DEB764970FB6F894DEBF0FBECDBF8E0109
:100190000F5F1F4F7E0125E1E20EF11C86E791E023
:1001A0000E94B90A8F3FEFEF9E07C1F3F8018193D8
:1001B0008F01EE15FF0591F789819A81982789278C
:1001C000982790938B0180938A018B819C8198273B
:1001D0008927982790938D0180938C018D819E8132
:1001E00098278927982790938F0180938E018F817C
:1001F000988598278927982790939101809390015B
:1002000089859A85982789279827909393018093C9
:1002100092018B859C859827892798279093950133
:10022000809394018D859E859827892798279093A0
:100230009701809396018F85988998278927982719
:10024000909399018093980189899A8998278927A1
:10025000982790939B0180939A018B899C8998277A
:100260008927982790939D0180939C0144E150E059
:1002700060E070E08AE891E064960FB6F894DEBF23
:100280000FBECDBFDF91CF911F910F91FF90EF90E7
:1002900052CCEAE8F1E083898F9382898F93818938
:1002A0008F9380898F9387858F9386858F9385859C
:1002B0008F9384858F9383858F9382858F93818598
:1002C0008F9380858F9387818F9386818F9385818C
:1002D0008F9384818F9383818F9382818F93818188
:1002E0008F9380818F938BE191E09F938F9386E72B
:1002F00091E09F938F930E94F70A8DB79EB748961F
:100300000FB6F8949EBF0FBE8DBF0895CF93DF93B5
:10031000EC01FB01809189018230D9F130F488230E
:1003200009F493C0813041F08EC0833009F44EC08F
:10033000843009F474C087C080918A0190918B0148
:10034000A0919E01B0919F01A80FB91F20918C012F
:1003500030918D0165E070E00E94750A8C0F9D1F41
:100360002817390708F4C9018A179B0740F08091C4
:10037000A0019091A1018A179B0708F4CD01245197
:1003800031092C173D0708F062C01182108222E06B
:1003900043C060817181A0919001B09191018091E1
:1003A0008E0190918F016A177B0728F420918C01B0
:1003B00030918D011CC09C01285231092C173D073A
:1003C00008F045C01182108223E026C0608171814F
:1003D000A0919401B0919501809192019091930127
:1003E0006A177B0778F420918E0130918F01821B70
:1003F000930B0E94750ABD010E949F0ACB01820FD8
:10040000931F25C08C179D0710F511821082109242
:1004100088011092870124E02093890118C08091FF
:100420009E0190919F012091960130919701821B2E
:10043000930B2091A0013091A1018217930738F40A
:100440001092890104C01092890180E090E090939D
:100450009F0180939E01DF91CF91089586E791E0FF
:100460000E94B90A813221F586E791E00E94B90A1B
:100470008F3F2FEF9207C1F3843421F481E0809302
:1004800084010895843619F4109284010895873503
:1004900009F46FCE833521F481E0809389010895BA
:1004A000883419F41092890108958F3409F4F1CE3B
:1004B00008950F931F93CF93DF9300D000D0CDB753
:1004C000DEB715B800000000FE013196CE0105969A
:1004D0001EBC0DB407FEFDCF2EB52193E817F9071A
:1004E000B9F709813A8107FD0CC010E066E0000F02
:1004F000111F6A95E1F7832F86958695080F111DC8
:1005000002C000E010E08B8187FF05C01092A101BE
:100510001092A00113C02C8122952F7090E044E02E
:10052000880F991F4A95E1F7820F911D969587953F
:10053000969587959093A1018093A00130FF14C0F8
:100540008C8187701F928F938BE391E09F938F93A1
:1005500086E791E09F938F930E94F70A0F900F9088
:100560000F900F900F900F9081E085B9C8010F9008
:100570000F900F900F90DF91CF911F910F910895E1
:1005800084B7877F84BF0FB6F894A89580916000E8
:10059000886180936000109260000FBE90E080E858
:1005A0000FB6F89480936100909361000FBE83E0D2
:1005B00084B9289A2998109285001092840082E8C4
:1005C000809380008CED8093810084E080936F00A5
:1005D0008AE698E1909387008093860021E030E0DE
:1005E00030938B0020938A00909389008093880039
:1005F00080E487B918B81AB880E58CBD81E08DBD5C
:100600007AD366E771E080E091E0ABC62091A0016B
:100610003091A101821B930B6AE678E166D760E511
:1006200075E08DD7CB0108952F923F924F925F9244
:100630006F927F928F929F92AF92BF92CF92DF92F2
:10064000EF92FF920F931F93CF93DF9300D000D0D0
:1006500000D0CDB7DEB74C01A12CB12C861A970A79
:10066000A108B108009749F41092880110928701FF
:10067000909286018092850194C07E836D831C01D7
:10068000609198017091990180E090E0A50194013A
:100690003DD72B013C0100918701109188016091A9
:1006A0009A0170919B01C80120D79C0140E050E065
:1006B00029833A834B835C83609185017091860125
:1006C000CB01770FAA0BBB0BBC01CD0168197909CF
:1006D0008A099B0920919C0130919D0140E050E0E6
:1006E00015D76B017C01A1018D819E81481B590B9F
:1006F000400F511F5E834D8340375E4F24F420E747
:100700003EEF3E832D834D815E814139514024F07F
:1007100020E931E03E832D8390928601809285010D
:10072000C10174DF480E591E611C711C89819A81B8
:10073000AB81BC81840D951DA61DB71DC80ED91EA9
:10074000EA1EFB1E3AE6C31638E1D306E104F104C3
:1007500034F04D815E81401751077CF007C0F7FEF1
:1007600005C08D819E81081719073CF09BE6C916CC
:1007700098E1D906E104F10430F42D813E813093F3
:100780008801209387013BE6C31638E1D306E104D4
:10079000F10424F4F7FC05C0C60105C08AE698E11F
:1007A00002C080E090E026960FB6F894DEBF0FBE40
:1007B000CDBFDF91CF911F910F91FF90EF90DF9010
:1007C000CF90BF90AF909F908F907F906F905F90F1
:1007D0004F903F902F900895CF93DF9300D0CDB7E7
:1007E000DEB71A821982CCDEBDDC789481E080937A
:1007F00089015FDE8C01BE016F5F7F4F87DD782E40
:10080000C92E89819A8101969A838983612CD12C82
:1008100085E4A82E81E0B82E96E7E92E91E0F92E26
:100820002FE6822E21E0922E8091A201882329F0CA
:1008300015DE80E091E049D5A4D48091A2018823FF
:10084000D9F16620C9F180918800909189002091AA
:1008500089011F922F939F938F93CF927F928091C4
:10086000A1018F938091A0018F931F930F93BF924B
:10087000AF92FF92EF92BBD60FB6F894DEBF0FBED9
:10088000CDBF80918401882389F0809188018F9366
:10089000809187018F939F928F92FF92EF92A7D6BC
:1008A0000F900F900F900F900F900F9066E771E0F0
:1008B0008AE090E0ABD6612C8091A301882309F4F3
:1008C000B3CF552453945D0C95E0D9120FC0BE01EF
:1008D0006F5F7F4FC8011ADD782EC92E89819A81FA
:1008E00001969A83898366246394512CE2DD8C01FE
:1008F0001092A301BC01872D9C2D96DE9093890058
:1009000080938800D52C90CF1F920F920FB60F9234
:1009100011248F9381E08093A3018F910F900FBEDC
:100920000F901F90189581E08093A2010895109276
:10093000A201089580E091E03EC480E091E025C5E9
:10094000292F33272230310559F02330310569F042
:1009500021303105E9F482E190E02AE131E01CC068
:100960008EE390E02CED30E017C09927813091059F
:1009700049F028F0029761F4E8E8F0E005C0E8EDFE
:10098000F0E002C0E8EBF0E0849190E09F0104C049
:1009900080E090E020E030E0FA0131832083089588
:1009A0002091AF013091B0012617370748F061154B
:1009B000710539F42091E8002E772093E80001C0FA
:1009C000B901FC0120E06115710561F18091A80178
:1009D0008823C9F18530C9F18091E80083FD31C0D9
:1009E0008091E80082FD27C08091E80080FFEBCF76
:1009F0008091F20090E06115710551F08830910509
:100A000038F421912093F100615071090196F3CFE0
:100A100021E0089709F020E08091E8008E7780932C
:100A2000E800D1CF2111D2CF06C08091A801882340
:100A300051F0853051F08091E80082FFF6CF80E0E0
:100A4000089581E0089582E0089583E0089520915B
:100A5000AF013091B0012617370748F061157105D5
:100A600039F42091E8002E772093E80001C0B90105
:100A7000FC0120E06115710569F18091A8018823CE
:100A8000D1F18530D1F18091E80083FD32C08091B1
:100A9000E80082FD28C08091E80080FFEBCF8091C4
:100AA000F20090E06115710559F08830910540F42D
:100AB00024912093F1003196615071090196F2CF93
:100AC00021E0089709F020E08091E8008E7780937C
:100AD000E800D0CF2111D1CF06C08091A801882392
:100AE00051F0853051F08091E80082FFF6CF80E030
:100AF000089581E0089582E0089583E00895982F95
:100B0000953068F59093E900981739F07091EC00F2
:100B10002091ED005091F00003C0242F762F50E07B
:100B200021FD02C09F5FECCF3091EB003E7F309300
:100B3000EB003091ED003D7F3093ED003091EB0004
:100B400031603093EB007093EC002093ED005093F4
:100B5000F0002091EE0027FDE5CF80E008958F7032
:100B60008093E90081E008950F931F93CF93DF9363
:100B7000062FEC0110E0101771F19881911103C05C
:100B80001F5F2596F8CF2C81A981BA816B81892FAF
:100B90008F70853010F080E01FC0223010F442E0EA
:100BA00001C046E0E8E0F0E020E0EA17FB0720F4AF
:100BB0002F5FEE0FFF1FF9CF2295207F422B62950A
:100BC000660F660F607C991F9927991F692B97DF25
:100BD0008111D6CFE0CF81E0DF91CF911F910F91AE
:100BE00008958091A90187FF11C08091E80082FDDE
:100BF00005C08091A8018111F8CF11C08091E80053
:100C00008B770BC08091A801882349F08091E80080
:100C100080FFF8CF8091E8008E778093E8000895F8
:100C20002091E4003091E50095E64091EC00842F9E
:100C3000817040FF23C08091E80080FD1DC080913D
:100C4000A801882399F0853099F08091EB0085FD0B
:100C500011C04091E4005091E5002417350729F3B5
:100C6000915011F09A01E1CF84E0089582E0089557
:100C700083E0089581E0089580E008954091E800C0
:100C800042FFDDCF089540D042D08091D8008F77C9
:100C90008093D8008091D80080688093D80080919C
:100CA000D8008F7D8093D80019BC82E089BD09B43B
:100CB00000FEFDCF1092A8011092A4011092A6018F
:100CC0001092A50142E060E080E019DF8091E10030
:100CD0008E7F8093E1008091E20081608093E2004A
:100CE0008091E20088608093E2008091E0008E7F36
:100CF0008093E0000895E3E6F0E080818E7F8083BA
:100D000081E08093A701BFCF1092E2000895109276
:100D1000E10008951F920F920FB60F9211242F93A6
:100D20003F934F935F936F937F938F939F93AF9373
:100D3000BF93EF93FF938091E10082FF0AC08091FF
:100D4000E20082FF06C08091E1008B7F8093E1008A
:100D500017D28091E10080FF17C08091E20080FFF0
:100D600013C08091E2008E7F8093E2008091E200C8
:100D700080618093E2008091D80080628093D800E7
:100D800019BC1092A801D3DD8091E10084FF2CC032
:100D90008091E20084FF28C019BC82E089BD09B4BB
:100DA00000FEFDCF8091D8008F7D8093D800809188
:100DB000E1008F7E8093E1008091E2008F7E80933E
:100DC000E2008091E20081608093E2008091A401C2
:100DD000811106C08091E30087FD02C081E001C05F
:100DE00084E08093A8019FDD8091E10083FF27C00C
:100DF0008091E20083FF23C08091E100877F809390
:100E0000E10082E08093A8011092A4018091E100AA
:100E10008E7F8093E1008091E2008E7F8093E200DC
:100E20008091E20080618093E20042E060E080E037
:100E300066DE8091F00088608093F000A1D1FF9180
:100E4000EF91BF91AF919F918F917F916F915F9142
:100E50004F913F912F910F900FBE0F901F901895BB
:100E60001F920F920FB60F9211242F933F934F931F
:100E70005F936F937F938F939F93AF93BF93CF9322
:100E8000DF93EF93FF93C091E900CF708091EC0066
:100E9000D82FD17080FDD0E81092E9008091F00049
:100EA000877F8093F00078941ED01092E9008091A3
:100EB000F00088608093F000CD2BCF70C093E900E4
:100EC000FF91EF91DF91CF91BF91AF919F918F9162
:100ED0007F916F915F914F913F912F910F900FBE36
:100EE0000F901F9018951F93CF93DF93CDB7DEB768
:100EF000AA970FB6F894DEBF0FBECDBFE9EAF1E0C6
:100F00008091F100819321E0E13BF207C9F715DD03
:100F10008091E80083FF1CC18091A9019091AA01F2
:100F2000492F50E04A30510508F012C1FA01E65C41
:100F3000FF4F19C3803881F0823809F009C18091D0
:100F4000AD018F708093E9008091EB0085FB8827CD
:100F500080F91092E90006C08091A5019091A60148
:100F6000911182609091E800977F9093E8008093C0
:100F7000F1001092F100C4C0282F2D7F09F0E8C0C5
:100F8000882319F0823061F0E3C08091AB01813099
:100F900009F0DEC0933009F080E08093A6012BC0F9
:100FA0008091AB01811127C08091AD018F7009F450
:100FB000CFC08093E9002091EB0020FF1CC093304C
:100FC00021F48091EB00806214C09091EB0090615D
:100FD0009093EB0021E030E0A90102C0440F551FBF
:100FE0008A95E2F74093EA001092EA008091EB00C4
:100FF00088608093EB001092E9008091E800877F81
:1010000082C08111A5C01091AB011F778091E300D0
:101010008078812B8093E3008091E800877F809324
:10102000E800DFDD8091E80080FFFCCF8091E300E5
:1010300080688093E300111102C082E001C083E068
:101040008093A80185C08058823008F081C08091CB
:10105000AB019091AC018C3D53E0950771F583E0B5
:101060008A838AE289834FB7F894DE01139620E0E1
:101070003EE051E2E32FF0E050935700E49120FF6F
:1010800003C0E295EF703F5FEF708E2F90E0EA3083
:1010900010F0C79601C0C0968D939D932F5F2431A9
:1010A00049F74FBF8091E800877F8093E8006AE2AC
:1010B00070E0CE01019674DC12C0AE014F5F5F4F4D
:1010C0006091AD013DDCBC01892B09F441C09091D8
:1010D000E800977F9093E80089819A81B8DC80913D
:1010E000E8008B778093E80033C0803889F58091E1
:1010F000E800877F8093E8008091A4018093F1004D
:101100008091E8008E778093E8006BDD21C081112B
:101110001FC08091AB019091AC0199270297C4F454
:101120008091E800877F8093E8008091AB018093F5
:10113000A40157DD8091A401811106C08091E300D4
:1011400087FD02C081E001C084E08093A801F2DB4A
:101150008091E80083FF0AC08091E800877F809338
:10116000E8008091EB0080628093EB00AA960FB6B6
:10117000F894DEBF0FBECDBFDF91CF911F910895D0
:101180000895CF938091A801882399F0C091E90038
:10119000CF709091EC00892F817090FD80E8C82B72
:1011A0001092E9008091E80083FD9DDECF70C0932E
:1011B000E900CF910895CF93DF93EC01FC01709685
:1011C0008BE0DF011D928A95E9F782E08C838987A5
:1011D00083E08E8761E0CE010196C6DC882361F052
:1011E00061E0CE010696C0DC882331F061E0CE01DB
:1011F0000B96DF91CF91B8CC80E0DF91CF9108952D
:101200000F931F93CF932091A8012430F9F4FC0190
:101210000489158926893789012B022B032BB1F00C
:10122000C62F81818F708093E9008091E80085FF4F
:1012300004C0C093F10080E00AC08091E8008E777E
:101240008093E800EDDC8823A1F301C082E0CF9118
:101250001F910F910895FB01682F84859585D0DF3C
:1012600021E030E0811102C020E030E0882799279A
:10127000821B930B08952091A801243021F5FC01D5
:101280004489558966897789452B462B472BD9F0A8
:1012900081818F708093E9008091F200882389F02A
:1012A0009091E8008091E8008E778093E80095FDAA
:1012B00008C0B6DC811108C08091E8008E77809369
:1012C000E80080E0089582E008952091A80124308C
:1012D00089F4FC014489558966897789452B462B19
:1012E000472B41F021812F702093E9002091E800E5
:1012F00020FDC1CF08952091A801243019F08FEF6F
:101300009FEF0895FC014489558966897789452BAB
:10131000462B472BA1F386818F708093E900809143
:10132000E80082FFECCF8091F200882321F0209129
:10133000F10030E002C02FEF3FEF8091F200811109
:1013400005C08091E8008B778093E800C90108957B
:10135000FC0184859585CFDF97FF02C08EEF9FEF5C
:101360000895FB012EE0DB011D922A95E9F723E0A9
:1013700023832BE239E03187208728EA39E033875D
:1013800022879587848708950895CF93DF93EC0192
:101390008091E80083FFA6C0888190E02091AD0194
:1013A0003091AE012817390709F09CC08091AA013D
:1013B000813261F020F4803209F43EC093C0823261
:1013C00009F46CC0833209F47DC08CC08091A901FE
:1013D000813A09F087C08091E800877F8093E80018
:1013E0008091E80080FFFCCF8C899D89AE89BF8900
:1013F0008093F100492F5A2F6B2F77274093F100EC
:10140000AD01662777274093F1008B2F9927AA27F4
:10141000BB278093F100888D8093F100898D8093A4
:10142000F1008A8D8093F1008091E8008E7780939F
:10143000E800DF91CF91D5CB8091A901813209F0ED
:1014400051C08091E800877F8093E8008091E80098
:1014500082FD05C08091A8018111F8CF43C0309171
:10146000F1002091F1009091F1008091F1003C8B0E
:101470002D8B9E8B8F8B8091F100888F8091F10056
:10148000898F8091F1008A8F8091E8008B7780931B
:10149000E800A7DBCE01DF91CF9176CF8091A90143
:1014A000813201F58091E800877F8093E80099DB25
:1014B0008091AB019091AC01998B888BCE01DF912B
:1014C000CF9162CF8091A901813261F48091E800CF
:1014D000877F8093E80085DB6091AB01CE01DF91CF
:1014E000CF9152CFDF91CF9108950024552704C0AA
:1014F000080E591F880F991F009729F07695679558
:10150000B8F37105B9F7802D952F0895EE27FF27C1
:10151000AA27BB2708C0A20FB31FE41FF51F220F85
:10152000331F441F551F969587957795679598F3B8
:101530007040A9F7009799F7BD01CF010895AA1B44
:10154000BB1B51E107C0AA1FBB1FA617B70710F0AE
:10155000A61BB70B881F991F5A95A9F780959095E0
:10156000BC01CD010895EE0FFF1F0590F491E02D11
:101570000994CF93DF93EC012B8120FF33C026FF2A
:101580000AC02F7B2B838E819F8101969F838E8340
:101590008A8190E029C022FF0FC0E881F981808113
:1015A000082E000C990B009719F420622B831AC0A7
:1015B0003196F983E8830EC0EA85FB85099597FF8C
:1015C00009C02B81019611F080E201C080E1822BDD
:1015D0008B8308C02E813F812F5F3F4F3F832E8337
:1015E000992702C08FEF9FEFDF91CF910895A0E080
:1015F000B0E0ECEFFAE0D9C2AE01475F5F4F6F8118
:1016000078858D819E813ED0E2E0EBC20F931F93DF
:10161000CF93DF93FB01238121FD03C08FEF9FEF69
:101620002CC022FF16C04681578124813581421784
:10163000530744F4A081B1819D012F5F3F4F318357
:1016400020838C93268137812F5F3F4F37832683FA
:1016500014C08B01EC01FB010084F185E02D09959C
:10166000892BE1F6D80116968D919C9117970196DA
:1016700017969C938E931697CE01DF91CF911F9171
:101680000F910895ABE0B0E0E7E4FBE07EC26C01AF
:101690007B018A01FC0117821682838181FFC0C110
:1016A000CE0101963C01F6019381F70193FD8591EE
:1016B00093FF81917F01882309F4AEC1853239F40B
:1016C00093FD859193FF81917F01853221F4B601CD
:1016D00090E09CDFE8CF912C212C312CFFE1F31519
:1016E000E0F08B3279F038F4803279F08332A9F46B
:1016F000232D206110C08D3259F0803371F4232DD9
:10170000216009C0832D8260382EE32DE46022C061
:10171000F32DF86025C0322E27C037FC2DC020EDF8
:10172000280F2A3088F436FE06C0892D6AE024D2BC
:10173000922E980E19C0822D6AE01ED2222E280EFB
:10174000832D8062382E10C08E3231F436FC64C195
:10175000E32DE0643E2E08C08C3621F4F32DF068B2
:101760003F2E02C0883641F4F70193FD859193FF27
:1017700081917F018111B2CF982F9F7D9554933035
:1017800028F40C5F1F4F2FE329830DC0833631F0FF
:10179000833771F0833509F055C020C0F80180818E
:1017A00089830E5F1F4F88248394912C530112C0AC
:1017B0002801F2E04F0E511CF801A080B18036FEE6
:1017C00003C0692D70E002C06FEF7FEFC50138D113
:1017D0004C018201F32DFF773F2E15C0280122E036
:1017E000420E511CF801A080B18036FE03C0692D65
:1017F00070E002C06FEF7FEFC50117D14C01F32DF0
:10180000F0683F2E820133FC19C0822D90E08816CB
:101810009906A0F4B60180E290E0F8DE2A94F5CFB4
:10182000F50137FC859137FE81915F01B60190E0AB
:10183000EDDE21102A9421E0821A9108811491048E
:1018400079F7E1C0843611F0893639F5F80137FEB1
:1018500007C060817181828193810C5F1F4F08C036
:1018600060817181072E000C880B990B0E5F1F4F52
:10187000F32DFF763F2E97FF09C0909580957095C8
:1018800061957F4F8F4F9F4FF0683F2E2AE030E0E9
:10189000A301E1D0882E861844C0853731F4232D6A
:1018A0002F7EB22E2AE030E025C0932D997FB92EED
:1018B0008F36C1F018F4883579F0AEC0803719F052
:1018C000883721F0A9C0E92FE061BE2EB4FE0DC01B
:1018D000FB2DF460BF2E09C034FE0AC0292F2660FC
:1018E000B22E06C028E030E005C020E130E002C0A2
:1018F00020E132E0F801B7FE07C06081718182818A
:1019000093810C5F1F4F06C06081718180E090E081
:101910000E5F1F4FA3019FD0882E8618FB2DFF77E7
:101920003F2E36FE0DC0232D2E7FA22E891458F493
:1019300034FE0BC032FC09C0832D8E7EA82E05C05C
:10194000B82CA32C03C0B82C01C0B92CA4FE0FC026
:10195000FE01E80DF11D8081803321F49A2D997EDE
:10196000A92E09C0A2FE06C0B394B39404C08A2D68
:10197000867809F0B394A3FC10C0A0FE06C0B21490
:1019800080F4280C922C9B180DC0B21458F4B601A8
:1019900080E290E03BDEB394F8CFB21418F42B1839
:1019A00002C0982C212CA4FE0FC0B60180E390E069
:1019B0002DDEA2FE16C0A1FC03C088E790E002C0A5
:1019C00088E590E0B6010CC08A2D867851F0A1FE22
:1019D00002C08BE201C080E2A7FC8DE2B60190E07C
:1019E00015DE891430F4B60180E390E00FDE9A949E
:1019F000F8CF8A94F301E80DF11D8081B60190E0E3
:101A000005DE8110F6CF222009F44DCEB60180E22A
:101A100090E0FCDD2A94F7CFF6018681978102C021
:101A20008FEF9FEF2B96E2E1CCC0FC010590615057
:101A300070400110D8F7809590958E0F9F1F0895E4
:101A4000FC016150704001900110D8F7809590958D
:101A50008E0F9F1F0895FA01AA27283061F12031C7
:101A600091F1E8946F936E7F6E5F7F4F8F4F9F4F22
:101A7000AF4FB1E040D0B4E03ED0670F781F891F70
:101A80009A1FA11D680F791F8A1F911DA11D6A0F42
:101A9000711D811D911DA11D22D009F468943F91F3
:101AA000062E000C3019000C000C3019305D3193FB
:101AB000CEF6CF010895462F4770405D4193B3E0C5
:101AC0000FD0C9F7F6CF462F4F70405D4A3318F05C
:101AD000495D31FD4052419302D0A9F7EACFB4E00D
:101AE000A6959795879577956795BA95C9F70097C5
:101AF0006105710508959B01AC010A2E0694579566
:101B0000479537952795BA95C9F7620F731F841FBC
:101B1000951FA01D0895DC01CB01FC01F999FECFB2
:101B200006C0F2BDE1BDF89A319600B40D92415065
:101B30005040B8F70895DC01A40FB51F4150504044
:101B400040F0CB01840F951F2E9105D0415050409D
:101B5000D8F70895262FF999FECF92BD81BDF89A46
:101B6000019700B4021639F01FBA20BD0FB6F894E1
:101B7000FA9AF99A0FBE0895002480FD060E660FAA
:101B800011F08695D1F7802D08952F923F924F92B4
:101B90005F926F927F928F929F92AF92BF92CF92FD
:101BA000DF92EF92FF920F931F93CF93DF93CDB706
:101BB000DEB7CA1BDB0B0FB6F894DEBF0FBECDBF7E
:101BC00009942A88398848885F846E847D848C844F
:101BD0009B84AA84B984C884DF80EE80FD800C8158
:101BE0001B81AA81B981CE0FD11D0FB6F894DEBF3B
:0C1BF0000FBECDBFED010895F894FFCFAB
:101BFC0000831000000104100000018208000001A5
:101C0C0000000000000000000000002125752C25BC
:101C1C00752C25752C25752C25752C25752C257565
:101C2C002C25752C25752C25750A004661756C7450
:101C3C003A25750A0074656D703A25752C726F6FB4
:101C4C006D3A25752C7461726765743A25752C5044
:101C5C00574D3A25752C73746174653A2564002CC4
:061C6C00493A2564000066
:00000001FF
